:020000020000FC
:100000000C9400040C940A000C9414000C941E0030
:100010000C942800C09B02C0C09801C0C09A00E0A8
:10002000102E01E0E02E1EC0C19B02C0C19801C08D
:10003000C19A01E0102E02E0E02E14C0C29B02C063
:10004000C29801C0C29A02E0102E04E0E02E0AC05D
:10005000C39B02C0C39801C0C39A03E0102E08E0FE
:10006000E02E00C00FEF02BB0EE1302E01E00F9337
:100070003F9200E3302E06E03A94F1F73A940A9565
:10008000D9F73F900F913A9491F70A9581F70FE7CE
:1000900002BB0EE1302E01E00F933F9200E3302EC1
:1000A00006E03A94F1F73A940A95D9F73F900F9108
:1000B0003A9491F70A9581F700B30E21002351F489
:1000C00003E0202EC49B02C0C49801C0C49A0FEF65
:1000D000F02E9DC00EE1302E01E00F933F9200E321
:1000E000302E06E03A94F1F73A940A95D9F73F900A
:1000F0000F913A9491F70A9581F70FEB02BB0EE14D
:10010000302E01E00F933F9200E3302E06E03A9448
:10011000F1F73A940A95D9F73F900F913A9491F7F5
:100120000A9581F700B30E21002351F402E0202E3E
:10013000C59B02C0C59801C0C59A0FEFF02E67C0DD
:100140000EE1302E01E00F933F9200E3302E06E0E7
:100150003A94F1F73A940A95D9F73F900F913A946F
:1001600091F70A9581F70FED02BB0EE1302E01E009
:100170000F933F9200E3302E06E03A94F1F73A9461
:100180000A95D9F73F900F913A9491F70A9581F724
:1001900000B30E21002351F401E0202EC69B02C0C3
:1001A000C69801C0C69A0FEFF02E31C00EE1302E76
:1001B00001E00F933F9200E3302E06E03A94F1F70E
:1001C0003A940A95D9F73F900F913A9491F70A958E
:1001D00081F70FEE02BB0EE1302E01E00F933F924C
:1001E00000E3302E06E03A94F1F73A940A95D9F7F5
:1001F0003F900F913A9491F70A9581F700B30E2141
:10020000002329F400E0202E0FEFF02E00C00FE0B5
:1002100002BB18953090008037FCFCCF03D00093D0
:100220000080089500D0000008952D3069F12A3033
:10023000A9F10091008007FDFCCFF4DF209300C0FE
:10024000089501E0E7CF02E0E5CF00E1E3CF04E16C
:10025000E1CF08E1DFCF0CE1DDCF0DE0DBCF0CE03B
:10026000D9CF0EE0D7CF0CE0D5CF05B7006C05BFD6
:1002700001E0D0DF06E0CEDF0CE0CCDF08E3CADF30
:100280000895022F0068C6CF0091008007FDFCCFC3
:1002900000740068C7DF0093008008952F9320E466
:1002A000F0DF2F910895FF91EF91EE0FFF1FAF93B5
:1002B000BF93C8953196002021F04AF0002D17D049
:1002C000F8CF3196F695E795BF91AF91099400FA72
:1002D000002DC895A02DA03610F0B2E001C0BB27BC
:1002E0003196043879F0053881F015C0E2CF2F93AC
:1002F000FF93EF93E42DF52D202F0995EF91FF91BA
:100300002F9108950C91F3DFD4CF0D91002309F4C0
:10031000D0CFEDDFFACF5F934F933F932F939F930F
:100320008F937F936F932D913D914D915D9106FD3C
:1003300006C005FD0FC004FD10C003FD19C06AE032
:10034000702F76957770729580E0902F92959370CC
:1003500093951AC062E094E003C060E194E000C0AD
:10036000702F7695777009F478E0729580E00CC074
:100370006AE0C895802D3196C895702D3196902FE2
:1003800095959370939500C0943081F0933051F01F
:10039000923021F0332716F427FD3FEF442716F45F
:1003A00037FD4FEF552716F447FD5FEF09D06F91EA
:1003B0007F918F919F912F913F914F915F9179CF35
:1003C000CF92BF92AF929F928F92BB18AA2499248A
:1003D000882486F4E89455236AF46894772309F016
:1003E000705150954095309520950FEF201B300BA4
:1003F000400B500B882351F055954795379527951D
:10040000B794A794979487948A95B1F77F93729540
:100410007F700EE20F9345D00C2D30D00F93002744
:10042000201730074007500729F07723A1F37A956A
:1004300091F707C0772329F07A9519F000E257DF8A
:10044000F9CF16F40DE253DF0F910E3211F04FDFAA
:10045000FBCF7F917F70772359F049DF282D392D0D
:100460004A2D5B2D11D00C2D09D041DF7A95D1F7A3
:100470008F909F90AF90BF90CF9008950A3010F466
:10048000005D0895095A0895CC2400E2889420FD67
:10049000C60EC79457954795379527950A95B1F796
:1004A0000895CC2400E2221F331F441F551FCC1C8B
:1004B000C61A08F4C60E0A95B1F7221F331F441F4F
:0C04C000551F50954095309520950895EB
:100800000FEF0DBF00E10EBF30DD00EF01BB0FE0C9
:1008100002BB0FEF07BB0FE009BF00E00ABFC79B99
:1008200002C0C79801C0C79AEE2400271127FF24F1
:1008300011242224222766279927002478941AD08D
:100840000C9452042A32B1F004EF302E02E00F93E0
:100850003F9200E3302E06E03A94F1F73A940A957D
:10086000D9F73F900F913A9491F70A9581F7FF24B9
:10087000DCDC0895E6DC05E1402E01E0502E13DDBE
:100880000D0D436F64653A00FF240CC064E0169EB2
:10089000020C602DF8E0E2EDE60F90E0F91F2491E4
:1008A000D1DF00C00FEFF01689F30AE0302E01E02F
:1008B0000F933F9200E3302E06E03A94F1F73A941A
:1008C0000A95D9F73F900F913A9491F70A9581F7DD
:1008D000E9CF3132334134353642373839432A3063
:0208E0002344AF
:00000001FF
